:020000040800F2
:1000000000000120AD050008FD050008FD05000801
:10001000FD050008FD050008FD05000800000000C2
:10002000000000000000000000000000FD050008C6
:10003000FD05000800000000FD050008FD050008A2
:10004000FD050008FD050008FD050008FD05000888
:10005000FD050008FD050008FD050008FD05000878
:10006000FD050008FD050008FD050008FD05000868
:10007000FD050008FD050008FD050008FD05000858
:10008000FD050008FD050008FD0500080000000052
:10009000000000000000000000000000FD05000856
:1000A000FD050008FD050008FD050008FD05000828
:1000B000FD050008FD050008FD050008FD05000818
:1000C000FD050008FD050008FD050008FD05000808
:1000D000FD050008FD050008FD0500080000000002
:1000E000FD050008FD050008FD05000800000000F2
:1000F000000000000000000000000000FD050008F6
:1001000000000000FD050008FD050008FD050008D1
:1001100000000000000000000000000000000000DF
:10012000FD050008FD050008FD050008FD050008A7
:10013000FD050008000000000000000000000000B5
:10014000000000000000000000000000FD050008A5
:10015000FD050008FD050008FD050008FD05000877
:10016000FD050008FD05000800000000000000007B
:10017000000000000000000000000000000000007F
:1001800000000000FD050008000000000000000065
:04019000FD05000861
:100194000348044B834202D0034B03B11847704712
:1001A400000000200000002000000000054806496F
:1001B4000B1AD90F01EBA301491002D0034B03B171
:1001C40018477047000000200000002000000000D5
:1001D40010B5064C237843B9FFF7DAFF044B13B18B
:1001E4000448AFF300800123237010BD00000020F9
:1001F400000000000006000808B5044B1BB10449C8
:100204000448AFF30080BDE80840CFE700000000D9
:1002140004000020000600081049114BD1F8882082
:1002240042F4700210B4C1F888201A680D4C002002
:1002340042F001021A6098601A6822F0847222F473
:1002440080321A605C601A684FF0006422F48022E5
:100254001A60D8608C605DF8044B704700ED00E0D4
:10026400003802401030002470B50D4E0D4D761B41
:10027400B61006D00024013455F8043B9847A64232
:10028400F9D1094E094D761B00F0B8F9B61006D025
:100294000024013455F8043B9847A642F9D170BDB7
:1002A40018060008180600081C06000818060008AE
:1002B400AC4BAD49AD4AAE4DAE4C05202DE980485E
:1002C4001863002058634FF080501864202058644D
:1002D4004FF401405D601C6048F201150860CA24B7
:1002E40053206FF480611D67546213465062D160DD
:1002F400DA685606FCD5A04AFF2119611A61DA684A
:10030400D50603D49D499E4A19605A60974B002232
:100314009A60DA685407FCD59A499B4A914D40F299
:10032400FF7058616FF080049960FF2040F2027101
:10033400DC60586211602B689803FCD5894B1A68FD
:100344009101FCD541F2020286499A608B6803F060
:100354000C03082BFAD18D4BDFF840828C4D8D496C
:100364008D4ADFF83CC2DFF83CE2804C43F2D3060E
:100374005E6040F2E730012698604FF400471E604B
:100384000026C8E900674FF04066C5F800C06FF06A
:100394000067AE604FF4597C42F2080618464FF4E9
:1003A4000053C5F80CE04FF032088B610D460F6026
:1003B4001346C2F808C02E27D6604FF0300E4FF017
:1003C400200C3A26E26882F4806242F38022E260E2
:1003D400002AF7D14FF006096A6982F400526A6173
:1003E4000022016802EB11421D2AFAD9B9F1010970
:1003F400F2D12168D4F80490C9F3011A0AF1300A41
:100404005FFA89FB1A681206FCD50BF00F02092A61
:10041400C3F804A094BF02F1300A02F1370A1A6843
:100424001206FCD5C3F804A01A681206FCD5C9F359
:10043400003A5F600AF1300AC9F3072B1A68120602
:10044400FCD50BF00F02092AC3F804A094BF02F1F3
:10045400300A02F1370A1A681206FCD5C3F804A060
:100464001A681206FCD55F601A681206FCD5C3F838
:1004740004801A681206FCD5C9F30352092AC3F88A
:1004840004E0C9F3074994BF02F1300A02F1370AC4
:100494001A681206FCD509F00F09B9F1090FC3F85F
:1004A40004A094BF09F1300909F137091A6812064A
:1004B400FCD5C3F804901A681206FCD5C1F3015A9E
:1004C400C3F804C00AF1300AC1F307491A681206D6
:1004D400FCD509F00F02092AC3F804A094BF02F165
:1004E400300902F137091A681206FCD5C3F80490E2
:1004F4001A681206FCD5C1F3023A5E600AF1300AAA
:10050400C1F307291A681206FCD509F00F02092A5B
:10051400C3F804A094BF02F1300902F137091A6844
:100524001206FCD5C3F804901A681206FCD5C1F370
:1005340002195E6009F13009C9B21A681206FCD5C5
:1005440001F00F010929C3F8049094BF3031373109
:100554001A681206FCD559601A681206FCD50A22DC
:100564005A602FE700380240007000400028004025
:100574000F1E400000000101FF007F003450020004
:100584002411190000040800003C024010E000E0BF
:100594000000024000080240001401402000024014
:1005A400F1FFBFEB04000018DFF834D0002103E0B2
:1005B4000C4B5B58435004310B480C4B42189A4285
:1005C400F6D30B4A02E0002342F8043B094B9A425B
:1005D400F9D3FFF721FEFFF747FEFFF769FE7047E7
:1005E4000000012020060008000000200000002078
:1005F400000000201C000020FEE70000F8B500BF4A
:10060400F8BC08BC9E467047F8B500BFF8BC08BCEF
:040614009E46704747
:04061800FD010008D8
:04061C00D5010008FC
:04000005080005AD3D
:00000001FF
