:020000040800F2
:10000000000001201D0500086D0500086D050008B1
:100010006D0500086D0500086D0500080000000072
:100020000000000000000000000000006D05000856
:100030006D050008000000006D0500086D05000852
:100040006D0500086D0500086D0500086D050008C8
:100050006D0500086D0500086D0500086D050008B8
:100060006D0500086D0500086D0500086D050008A8
:100070006D0500086D0500086D0500086D05000898
:100080006D0500086D0500086D0500080000000002
:100090000000000000000000000000006D050008E6
:1000A0006D0500086D0500086D0500086D05000868
:1000B0006D0500086D0500086D0500086D05000858
:1000C0006D0500086D0500086D0500086D05000848
:1000D0006D0500086D0500086D05000800000000B2
:1000E0006D0500086D0500086D05000800000000A2
:1000F0000000000000000000000000006D05000886
:10010000000000006D0500086D0500086D05000881
:1001100000000000000000000000000000000000DF
:100120006D0500086D0500086D0500086D050008E7
:100130006D05000800000000000000000000000045
:100140000000000000000000000000006D05000835
:100150006D0500086D0500086D0500086D050008B7
:100160006D0500086D05000800000000000000009B
:10017000000000000000000000000000000000007F
:10018000000000006D0500080000000000000000F5
:040190006D050008F1
:100194001049114BD1F8882042F4700210B4C1F810
:1001A40088201A680D4C002042F001021A60986001
:1001B4001A6822F0847222F480321A605C601A6831
:1001C4004FF0006422F480221A60D8608C605DF8DD
:1001D400044B704700ED00E000380240103000246A
:1001E40010B5054C237833B9044B13B10448AFF36D
:1001F40000800123237010BD0000002000000000D7
:10020400B805000808B5034B1BB103490348AFF315
:10021400008008BD0000000004000020B8050008AC
:10022400AB4AAC49AC48AD4CAD4B05252DE98048F3
:100234001563002555634FF08055156420255564DA
:10024400506014604FF4014048F2011408601467D0
:10025400CA2053216FF4806258625962DA60DA6806
:100264005406FCD59F4AFF2119611A61DA68D00649
:1002740003D49D499D4A19605A60994B00229A60A3
:10028400DA685107FCD540F2FF7058619849994AE1
:1002940099606FF08004FF20DC6040F202715862C4
:1002A4008B4B11601A689203FCD5894B1A6897012D
:1002B400FCD541F2020286499A608B6803F00C0374
:1002C400082BFAD14FF0E02243F2D3015161DFF859
:1002D40038E2894E89488A4B40F2E73191614FF008
:1002E400000801214FF400491161CEE90889CEF8D4
:1002F40000604FF04066CEF80860824ECEF80C6085
:100304004FF4005686614FF4597B42F2080A6FF0AD
:100314000066734906602E25C3F808B04FF0320C0E
:1003240030273A24C3F80CA0CE6886F4806646F3DE
:100334008026CE60002EF7D14FF00608D0F814E0E6
:100344008EF4005E0026C0F814E0D2F810E006EB4C
:100354001E461D2EF9D9B8F10108EFD1D1F800E0FD
:10036400D1F80480C8F3011A5FFA88F90AF1300A57
:100374001E683606FCD509F00F06092EC3F804A042
:1003840094BF06F1300906F137091E683606FCD51C
:10039400C3F804901E683606FCD5C8F3003A5D60C5
:1003A400C8F307290AF1300A1E683606FCD509F09D
:1003B4000F06092EC3F804A094BF06F1300906F114
:1003C40037091E683606FCD5C3F804901E68360645
:1003D400FCD55D601E683606FCD5C3F804C01E68F3
:1003E4003606FCD5C8F30356092E5F60C8F30748E8
:1003F40094BF06F1300906F137091E683606FCD5AC
:1004040008F00F08B8F1090FC3F8049094BF08F17D
:10041400300808F137081E683606FCD5C3F8048096
:100424001E683606FCD5CEF3015920265E60CEF355
:10043400074809F130091E683606FCD508F00F0696
:10044400092EC3F8049094BF06F1300806F137086A
:100454001E683606FCD5C3F804801E683606FCD533
:10046400CEF302395C60CEF3072809F130091E6827
:100474003606FCD508F00F06092EC3F8049094BF85
:1004840006F1300806F137081E683606FCD5C3F8B5
:1004940004801E683606FCD5CEF302185C605FFA51
:1004A4008EFE08F130081E683606FCD50EF00F0EDD
:1004B400BEF1090FC3F8048094BF0EF1300E0EF1A3
:1004C400370E1E683606FCD5C3F804E01EE000BFF4
:1004D40000380240007000400F1E4000000001017F
:1004E40000280040FF007F0034500200241119004E
:1004F40000040800003C0240F1FFBFEB000802408A
:100504000014014004000018000002401E68360672
:10051400FCD50A265E6007E7DFF834D0002103E04B
:100524000C4B5B58435004310B480C4B42189A4215
:10053400F6D30B4A02E0002342F8043B094B9A42EB
:10054400F9D3FFF725FE00F011F8FFF769FE7047B5
:1005540000000120D8050008000000200000002051
:10056400000000201C000020FEE7000070B50D4DC7
:100574000D4C641BA4100026A64209D10B4D0C4C53
:1005840000F018F8641BA4100026A64205D170BD23
:1005940055F8043B98470136EEE755F8043B984775
:1005A4000136F2E7D0050008D0050008D0050008A0
:1005B400D4050008F8B500BFF8BC08BC9E467047D7
:0C05C400F8B500BFF8BC08BC9E467047AC
:0405D0000902000814
:0405D400E501000835
:040000050800051DCD
:00000001FF
